S0110000657073696C6F6E76312E7372656372
S11300000C9434000C9451000C9451000C94510045
S11300100C9451000C9451000C9451000C94510018
S11300200C9451000C9451000C9451000C949901BF
S11300300C9451000C9451000C9451000C945100F8
S11300400C9451000C9451000C9451000C945100E8
S11300500C9451000C94ED010C9451000C9451003B
S11300600C9451000C94510011241FBECFEFD8E022
S1130070DEBFCDBF11E0A0E0B1E0ECE8FBE002C0E0
S113008005900D92AA34B107D9F721E0AAE4B1E0B2
S113009001C01D92A835B207E1F70E941B020C941F
S11300A0C4050C9400000FEF0ABD00E004BDFFCFAF
S11300B08093BB0084E88093BC00ECEBF0E080818B
S11300C08823ECF7089584EA8093BC00ECEBF0E01D
S11300D080818823ECF7089584E98093BC0083E051
S11300E08A95F1F7000008951092B90088E480938E
S11300F0B80084E08093BC000895CF93C82F0E9479
S1130100630080910001880F0E9458008C2F0E9488
S113011058000E946C00CF91089580914E01897F10
S113012080934E010E947D0089EF90E00197F1F7E2
S113013000C0000080914E01846080934E010E94B3
S11301407D0089EF90E00197F1F700C000008091F5
S11301504E01897F80934E010E947D0091E29A9521
S1130160F1F70000089520914E012F7030E1839F34
S1130170C0011124822B80934E010E948D000895AA
S1130180CF93C82F82958F700E94B3008C2F0E944A
S1130190B300CF910895CF93C82F80914E01887FEB
S11301A080934E010E947D008C2F0E94C000CF914D
S11301B00895CF93C82F80914E01816080934E01A2
S11301C00E947D008C2F0E94C000CF910895611180
S11301D004C080680E94CB000895613019F4806CDB
S11301E00E94CB000895CF93DF93EC01888188238C
S11301F031F021960E94D90089918111FBCFDF91C2
S1130200CF91089587EA91E60197F1F700C00000C5
S113021081E00E94CB0087EA91E60197F1F700C0E4
S11302200000089510924E01882331F088E08093F5
S11302304E010E947D0003C080E00E947D0083ED9A
S113024090E30197F1F700C0000008950E94740044
S113025080E090E00E947D0083E090E00E94B30083
S113026084E694E00197F1F700C0000083E090E099
S11302700E94B30084E694E00197F1F700C0000007
S113028083E090E00E94B30092E39A95F1F782E054
S113029090E00E94B30082E090E00E94B3008CE002
S11302A090E00E94B30080E090E00E94B30088E0F8
S11302B090E00E94B30080E090E00E94B30081E0EF
S11302C090E00E94B30080E090E00E94B30086E0DA
S11302D090E00E94B30080E090E00E94B3008FE0C1
S11302E090E00E94B30081E090E00E94120181E05E
S11302F0089580E480937C00EAE7F0E080818760E1
S113030080838081886880830895E1E8F0E08081BB
S1130310886080838081836080838AEF90E09093FB
S1130320890080938800EFE6F0E08081826080831A
S113033008951F920F920FB60F9211248F93EF938B
S1130340FF93EAE7F0E0808180648083FF91EF917E
S11303508F910F900FBE0F901F90189587369105BF
S113036008F18E3C910508F1833321E0920700F1F6
S1130370893921E09207F8F08F3F21E09207F0F0ED
S1130380853622E09207E8F08B3C22E09207E0F009
S1130390813323E09207D8F087399340D8F089E07D
S11303A090E0089580E090E0089581E090E0089561
S11303B082E090E0089583E090E0089584E090E086
S11303C0089585E090E0089586E090E0089587E040
S11303D090E0089588E090E008951F920F920FB680
S11303E00F9211242F933F934F935F936F937F93B7
S11303F08F939F93AF93BF93EF93FF938091780074
S11304002091790090E0922B0E94AE0180935701D5
S1130410FF91EF91BF91AF919F918F917F916F91D8
S11304205F914F913F912F910F900FBE0F901F90AE
S113043018955A9808950E9453000E9479010E94C9
S1130440850178940E9426010E94020160E080E008
S11304500E94E70087E091E00E94F3002FE784E820
S11304609EE1215080409040E1F700C0000061E02F
S113047080E00E94E7008CE091E00E94F300EFE747
S1130480F4E82EE1E150F0402040E1F700C0000024
S11304900E9402010F2EF1E5EF2EF1E0FF2EF02D68
S11304A00F2EF1E0CF2EF1E0DF2EF02D0F2EF6E02F
S11304B0BF2EF02D07E411E0CFE4D1E0189B58C023
S11304C080914A0190914B01FC01EE0FFF1FEF5AFE
S11304D0FE4F2091570130E03183208301969093A1
S11304E04B0180934A0103974CF1F701208131813C
S11304F0F601808191812817390761F45A9A0E9484
S1130500020160E080E00E94E70081E191E00E9446
S1130510F3000AC00E94020160E080E00E94E7004C
S113052083E291E00E94F30010924B0110924A0181
S1130530F7012B2D11922A95E9F711C080914C01F6
S113054090914D01019690934D0180934C01039736
S113055031F40E94190210924D0110924C018FE364
S113056092E4EFE081509040E040E1F700C00000E9
S113057061E080E00E94E70087E391E00E94F300DD
S1130580809157011F928F931F930F93DF93CF9303
S11305900E94DA02CE010E94F30087EA91E60197F5
S11305A0F1F700C000000F900F900F900F900F9084
S11305B00F9084CFAEE0B0E0E0EEF2E00C949B0547
S11305C00D891E8986E08C831A8309838FEF9FE748
S11305D09E838D83AE01475E5F4F6F89788DCE0118
S11305E001960E94FC02EF81F885E00FF11F108252
S11305F02E96E4E00C94B705ABE0B0E0E2E0F3E063
S11306000C948D056C017B018A01FC011782168212
S1130610838181FFCCC1CE0101963C01F601938117
S1130620F70193FD859193FF81917F01882309F45C
S1130630BAC1853239F493FD859193FF81917F018D
S1130640853229F4B60190E00E94F304E7CF912C9F
S1130650212C312CFFE1F315D8F08B3279F038F4EA
S1130660803279F08332A1F4232D20611DC08D32B4
S113067061F0803369F4232D216016C0832D8260DC
S1130680382EE32DE4603E2E2AC0F32DF8601DC001
S113069037FC2DC020ED280F2A3040F08E32B9F4FB
S11306A036FC81C1232D2064322E19C036FE06C0CB
S11306B08AE0989E200D1124922E11C0EAE02E9E0D
S11306C0200D1124222EF32DF0623F2E08C08C360B
S11306D021F4832D8068382E02C0883641F4F70156
S11306E093FD859193FF81917F018111B3CF982F61
S11306F09F7D9554933028F40C5F1F4F9FE399839B
S11307000DC0833631F0833771F0833509F059C059
S113071021C0F801808189830E5F1F4F8824839450
S1130720912C530113C02801F2E04F0E511CF80123
S1130730A080B18036FE03C0692D70E002C06FEF67
S11307407FEFC5010E94E8044C018201F32DFF777D
S11307503F2E16C0280122E0420E511CF801A08051
S1130760B18036FE03C0692D70E002C06FEF7FEFE9
S1130770C5010E94DD044C01F32DF0683F2E820177
S113078033FC1BC0822D90E088169906B0F4B601A4
S113079080E290E00E94F3042A94F4CFF50137FC40
S11307A0859137FE81915F01B60190E00E94F304C8
S11307B021102A9421E0821A91088114910471F77E
S11307C0E8C0843611F0893641F5F80137FE07C0D8
S11307D060817181828193810C5F1F4F08C06081A9
S11307E07181072E000C880B990B0E5F1F4FF32DA0
S11307F0FF763F2E97FF09C090958095709561957F
S11308007F4F8F4F9F4FF0683F2E2AE030E0A301C7
S11308100E942F05882E861845C0853731F4232D74
S11308202F7EB22E2AE030E025C0932D997FB92E79
S11308308F36C1F018F4883579F0B5C0803719F0D7
S1130840883721F0B0C0E92FE061BE2EB4FE0DC0A0
S1130850FB2DF460BF2E09C034FE0AC0292F266088
S1130860B22E06C028E030E005C020E130E002C02E
S113087020E132E0F801B7FE07C060817181828116
S113088093810C5F1F4F06C06081718180E090E00E
S11308900E5F1F4FA3010E942F05882E8618FB2D83
S11308A0FF773F2E36FE0DC0232D2E7FA22E8914F6
S11308B058F434FE0BC032FC09C0832D8E7EA82E62
S11308C005C0B82CA32C03C0B82C01C0B92CA4FEBD
S11308D00FC0FE01E80DF11D8081803321F49A2DB3
S11308E0997EA92E09C0A2FE06C0B394B39404C095
S11308F08A2D867809F0B394A3FC11C0A0FE06C02B
S1130900B21488F4280C922C9B180EC0B21460F414
S1130910B60180E290E00E94F304B394F7CFB214DE
S113092018F42B1802C0982C212CA4FE10C0B60178
S113093080E390E00E94F304A2FE17C0A1FC03C070
S113094088E790E002C088E590E0B6010CC08A2DEB
S1130950867859F0A1FE02C08BE201C080E2A7FCB8
S11309608DE2B60190E00E94F304891438F4B601D4
S113097080E390E00E94F3049A94F7CF8A94F30101
S1130980E80DF11D8081B60190E00E94F30481100E
S1130990F5CF222009F442CEB60180E290E00E9415
S11309A0F3042A94F6CFF6018681978102C08FEF73
S11309B09FEF2B96E2E10C94A905FC010590615090
S11309C070400110D8F7809590958E0F9F1F089561
S11309D0FC016150704001900110D8F7809590950A
S11309E08E0F9F1F08950F931F93CF93DF93FB01E7
S11309F0238121FD03C08FEF9FEF2CC022FF16C07F
S1130A0046815781248135814217530744F4A081DC
S1130A10B1819D012F5F3F4F318320838C932681C9
S1130A2037812F5F3F4F3783268314C08B01EC013E
S1130A30FB010084F185E02D0995892BE1F6D801AD
S1130A4016968D919C911797019617969C938E9369
S1130A501697CE01DF91CF911F910F910895FA015E
S1130A60AA27283051F1203181F1E8946F936E7FE9
S1130A706E5F7F4F8F4F9F4FAF4FB1E03ED0B4E0DA
S1130A803CD0670F781F891F9A1FA11D680F791F1B
S1130A908A1F911DA11D6A0F711D811D911DA11D2C
S1130AA020D009F468943F912AE0269F112430193C
S1130AB0305D3193DEF6CF010895462F4770405DD7
S1130AC04193B3E00FD0C9F7F6CF462F4F70405D86
S1130AD04A3318F0495D31FD4052419302D0A9F7E1
S1130AE0EACFB4E0A6959795879577956795BA95DB
S1130AF0C9F700976105710508959B01AC010A2EA1
S1130B0006945795479537952795BA95C9F7620F77
S1130B10731F841F951FA01D08952F923F924F921B
S1130B205F926F927F928F929F92AF92BF92CF9279
S1130B30DF92EF92FF920F931F93CF93DF93CDB782
S1130B40DEB7CA1BDB0B0FB6F894DEBF0FBECDBFFA
S1130B5009942A88398848885F846E847D848C84CB
S1130B609B84AA84B984C884DF80EE80FD800C81D4
S1130B701B81AA81B981CE0FD11D0FB6F894DEBFB7
S10F0B800FBECDBFED010895F894FFCF27
S1130B8C270100020003005A656967004865696C17
S1130B9C0050617373776F7264206D617463686560
S1130BAC64210050617373776F726420696E636F94
S1130BBC7272656374210043757272656E7420568B
S10D0BCC616C7565203A0025640091
S9030000FC
